:4000000000100020110000006D0300006D03000008B500F0F9FB00F0ABF90000F8B572B680220021D2004A4800F00FFF8023DA004848002100F009FF0023181C4649FF2540
:400040005C584700261CAE431031E2B2351CC919002A07D00E784F787619013A3770D2B20231F5E7E4B204330019102BE6D1C0233A4D3B4F9904802499263A483A4B29609C
:400080003E60E103394E046040251960C0273848384935607C03384B384E046031250A6002221A609927356035488021354D3C040B06354E046080272B6034483449354B56
:4000C0003460354DBC05046019602E78062732432A702A78314C3A432A7020688021CB0203432F4D2F4E236028782F4F31783A78172A05D92D4B7878B978033F9F42F6D161
:400100002B4D2C4E2C4F19222860316005203A6000F04AFD29482A4B01780520196000F0D7FD284E2568284A2E4028482660202710241460264D0760264E274F8021274CA7
:40014000274A28480B062B60336014600760F8BD00300F4000400F40680E0000040001401000014000000440080004400001044008010440080304400004044008040440BC
:4001800000500F4004500F4010500F4018500F40100001002001054000700F4000010B40CCF1FF0FCDF1FF0FC9F1FF0FBDF1FF0F1CFF0B4020FF0B402CFF0B40E5F1FF0FD0
:4001C00028FF0B40FFFFFBFF080202402002024008010B4004010B40AF04008010000080000002404000024010B5064C2378002B07D10548002802D0044800E000BF0121B1
:40020000217010BDF000002000000000640E000008B5084B002B03D00748084900E000BF07480168002903D0064A002A00D0904708BDC04600000000640E0000F40000206B
:40024000D00000200000000010B562B600F078FC00280ED16524012000F024FD00F070FC002806D1013CE4B2002CF4D1034B40221A6000F057FC00F099FAFEE7C0000020B7
:4002800008B500F0E9FA00F021FB00F089FB08BD70B5054B0D1C161C0024C9B21C8000F073FB3580201C70BD0C010020F0B50A275F4387B002900591161C00252A4CBD4212
:4002C00019DA00F0F1FA80B220802388002B0CD00220278800F0E6FC00F0E6FA81B221802288BA42F4D8002706E00120013500F0D9FCADB2E2E705270025358020880028CC
:400300002FD023883088019301994218059993B233808B4221D201982A1893B2049304998D4209D002994819039000F0A3FA039A01351070ADB2F2E772B62088019A831AD2
:4003400099B2218062B602984219013A1378172BD4D0052000F0A6FCD0E7308000F0B6FA0527381C07B0F0BD0C01002000B5FEE770B50F490F4A01394B1C14D0506895685F
:400380001468031C1E1AAE4202D040CC40C3F9E7D0681D1C5C1B844202D0002640C3F9E710320139E8E700F021FDFFF74DFFFEE701000000B80E000008B500239A00032B41
:4003C00002D80C48815800E00B490C4801338150302BF3D1FFF722FE09490A4B086800221A60002800D1086080230122D9050A6008BDC046000000006D03000000000020B7
:40040000C0000020C80000200047000038B5041C013806280BD800F0DFFC2406260F11080400174820E0174B09E0174B07E0002000F02AFC002302E0144B00E0144B5A7871
:40044000187800021043022C04D0032C07D0012C15D104E0040A0302234398B20FE000BA0DE00C4800E00C48C578817842780378180628430D02284311040843E3E738BD2A
:40048000D87F0000C57F0000D47F0000D27F0000D67F0000C17F0000C97F000038B50220FFF7B4FF051C0320FFF7B0FF6C1CE1010C180220FFF7AAFF0023421CD201191CA7
:4004C000A24209D21078451EEDB2FD2D00D80121C318DBB20132F3E705485B420578DCB2AC4201D0062002E00029FBD0002038BDC07F0000F0B5A34CA544FFF7C1FE62B6CC
:4005000000250095002603AF962124A849003A1CFF23FFF7CBFE0028F5D139880423062967D924AA1478012C63D193236B4492221F786A4413783C021C4324AF3A191779EA
:4005400053790197E71D9C4603238F4251D89179042317294DD1E3189BB2002B08D0BAAA8949D7187A181778013BC01980B2F3E762464042019F110282B239430823914245
:4005800037D168E0342900D09AE0012D00D0F6E0032C00D0F3E06FA80021802200F055FC80266FA9881935192639E21EFF39AEB200F042FC832E00D0DAE0BC797979009FB0
:4005C00026020E43002F0AD1391C802204A800F03CFCFF2004A900F0F7FA01200090301C6FA900F0F1FA0125002800D1C3E000260A23002168469130012703706A4624AC50
:400600006B4692330E32277000200F1D197058701180BBB25C4FBAACE418E4192778013BC0199BB280B2002BF4D14442A0B2BAAF564C7B181F19564C38701F19554C000ACA
:4006400038701B19172707311F7089B224A89623FFF71EFE57E724AF79783B79081C31380A2801D90523C4E700F0ACFB0611FC8C2FFC32428C507800012D00D07FE0002CF3
:400680007DD1FFF70BFF434243413B7163E0012D75D1012C73D1002B71D13F4A25A8146821889524CF0907703A0A97209627FF216C446F446844397022700370042199E7E5
:4006C000012D5CD1022C5AD96BE7012D57D119E7012D54D19620371943009F424DD86FAA901925A9221C00F0A7FBBEB2002380E7002C44D104AB294A191CA0CAA0C125AF63
:4007000021CB21C708210125231C73E7012D36D1032C34D196226A449521177869440C7838021A0220438718FF01002280210139CC5D1219D2B20029F9D1002B08D1FF286D
:4007400006D1174B174918780C78171A3A1BD2B2504224AB1871002301214BE7FFF79EFE002802D110488024046000F08FFA06E00125002601E0061CB8E7032339E70423BA
:4007800037E7C04614FDFFFFA7FDFFFFACFDFFFFADFDFFFFAEFDFFFFD40000208C0E0000D07F0000D17F0000C0000020144810B50368002219680B1C013BBF2B03D01C787C
:4007C0001219D2B2F8E740680478A21AD3B2A34201D1002902D1002000F056FAFFF75EFE084C2168221C402901D0002803D000231360FFF77FFE8020206000F047FA10BD2A
:40080000D4000020C000002008B50B4B10201A680A49024000D10A600B68802B0BD1002201200A60FFF7F2FD002804D00120FFF7EDFDFFF7E9FD08BD00030B40C0000020F7
:4008400008B5044B8022196810060843186000F099F908BD0000064008B5054B1A78002A03D10120187000F0BDF8FFF7E9FF08BD10010020094B00B51968094B1A689142F1
:400880000AD019684A1C4039481E8141484205490240885C1A6000E0002000BDAC0100202401002068010020064B074A1B68116800B58B4202D31268981A02E01068413317
:4008C000181A00BDAC010020240100200C4A0D4B002130B5106811601D68802464022C431C601D68084C2C401C60084B084C1D68084B25601970084D08492960106030BD06
:40090000C80F064004030640FFFFFEFF24010020AC010020A9010020C00F0640ED0F0000124910B50A68531C3F3A541EA241544223400F4A1468A342FBD00C681268944254
:4009400008D10C4C0F2224682240082A02D00A4A10600AE0094C02222260094CC0B2E0540B60084B19680A431A6010BD200100201C0100200802064040020640800F064081
:4009800028010020880F064038B5041C4518AC4204D02078FFF7C4FF0134F8E738BD00000B4A0023116810B513600A4B80201C684002204318601C68074820401860074BCF
:4009C00007481C68022399430460116010BDC046880F064004020640FFFFFEFF1C010020200100201B4A1C4B1C4810B51C4900241A60046001221B4B1B480A601B49036060
:400A0000072008601A491B4804600A601A4A13601A4B1C6000F0BEF8194800F099F8032000F09CF817481849184A194B04600C60146018491C60184A184B04200860146040
:400A400017481C601749184A184B04600C7014601C6010BD0B00000200000640400006404800064007000080000306400403064044000640100306400002064004020640DE
:400A8000E50C0000880E0640C80E0640480F0640080F0640C80F0640880F0640AC01002024010020A9010020200100201C0100200D4B8422D00418601968802250020843F5
:400AC0001860196809481960C3239A000260084B084A09480021196002600849084B09481C2219600260704700010540240105403801054010270000140105408813000040
:400B00000C0105402801054008B500F056F8044B01211A680A431A6000F053F808BDC0460000054010B5054C2378002B03D1FFF7BFFF01202070FFF7E7FF10BD18010020FE
:400B4000024B18680106C80F7047C04604000440014B98667047C0460000002038B5041C00F02BF8054B06491D68A2052C1C0C4014431C6000F025F838BDC04608E400E078
:400B8000FFFF3FFF8022024BD00018607047C04600E100E08022024BD00018607047C04680E100E0000000000230800804D0C0460138FDD1C046C0467047EFF3108072B617
:400BC000704780F310887047F0B50023A7B0071C0193FF2845D8994243D0244A244C04AE26607F25049206A88022756000F024F9204D214929602B68002BFCDB2068A021B4
:400C00000290029A0B069A4201D1002004E00298020F0F2A02D10920019003E021680B0F0A2BFBD1019A002A1DD12660134E3F0437430497FFF7C1FF1149124A0B68039364
:400C40002A602F68002FFCDB039DA0260D60FFF7B8FF2468310602940298884203D0029800E001200190019827B0F0BDB6D70000080000400400004004000080B6D80000C9
:400C800008010B400500008001BE7047034B04491A6890B2084318607047C0460CED00E00400FA0510B5041C8022074B1002844205D91868FFF778FF04496418F4E758684A
:400CC0006043FFF771FF10BDDC0000200080FFFF08B5034B197A4843FFF766FF08BDC046DC000020264B10B51868002800D0804724490A6852071DD5234C23681A0716D0B9
:400D0000224B234A186811684B1C40394C1EA1414C42204923400C68A34203D11E4B20221A70E9E71D49C0B2C8541360E4E71C49042008601B4A1468A20720D51A4B0F21F1
:400D400018680140082917D0184A194B1468186884420CD01C68621C3F3C601E8441614214480A40845C14490C601A60E6E7134C022122688A432260114B0220186010BD1F
:400D800014010020CC0F06400803064040030640AC01002024010020A901002068010020C00F06408C0F064008020640200100201C0100202801002040020640880F06402C
:400DC000800F064002B4714649084900095649008E4402BC7047C04602B4714649084900095C49008E4402BC7047C04670B50E4B0E4D0024E81A85101E1CAC4204D0A100EF
:400E0000725890470134F8E700F044F80849094A0E1C541AA5100024AC4204D0A300F05880470134F8E770BDA00E0000A00E0000A00E0000A80E000010B50023934203D0B7
:400E4000CC5CC4540133F9E710BD00B58218031C934202D019700133FAE700BDE80E0000050000000000000001330F4003410F4004430F4002600F40E61062048E04D84083
:400E800018808C40C608E608020111019311C80411140101F8B5C046F8BC08BC9E46704711020000B9030000F8B5C046F8BC08BC9E467047E9010000C80E0000D00000205B
:400EC00020000000C0000000000000005C0E0000600E00000000E02EC05D00001800000000366E010000000000000000000000000000000000000000000000000000000052
:400F000000000000000000000000000000000000000000000000000000000000000000000000000000000000000000000000000000000000000000000000000000000000B1
:400F40000000000000000000000000000000000000000000000000000000000000000000000000000000000000000000000000000000000000000000000000000000000071
:400F80000000000000000000000000000000000000000000000000000000000000000000000000000000000000000000000000000000000000000000000000000000000031
:400FC00000000000000000000000000000000000000000000000000000000000000000000000000000000000000000000000000000000000000000000000000000000000F1
:407FC000000000000000000000000000000000000000010001000000000000000000000000000000000000000000000000000000000000000000000000000000000000007F
:0200000490303A
:02000000B550F9
:0200000490402A
:20000000FFFF010000000000000000000000000000000000000000000000000000000000E1
:0200000490501A
:0C000000000204C81193110004CCC6E3F8
:0200000490600A
:0100000001FE
:00000001FF